{
  "_format": "hh-sol-artifact-1",
  "contractName": "SupplyChain",
  "sourceName": "contracts/SupplyChain.sol",
  "abi": [
    {
      "inputs": [],
      "stateMutability": "nonpayable",
      "type": "constructor"
    },
    {
      "anonymous": false,
      "inputs": [
        {
          "indexed": true,
          "internalType": "uint256",
          "name": "shipmentId",
          "type": "uint256"
        },
        {
          "indexed": false,
          "internalType": "address",
          "name": "handler",
          "type": "address"
        },
        {
          "indexed": false,
          "internalType": "string",
          "name": "location",
          "type": "string"
        }
      ],
      "name": "CheckpointAdded",
      "type": "event"
    },
    {
      "anonymous": false,
      "inputs": [
        {
          "indexed": true,
          "internalType": "uint256",
          "name": "productId",
          "type": "uint256"
        },
        {
          "indexed": false,
          "internalType": "string",
          "name": "productName",
          "type": "string"
        },
        {
          "indexed": false,
          "internalType": "address",
          "name": "manufacturer",
          "type": "address"
        }
      ],
      "name": "ProductCreated",
      "type": "event"
    },
    {
      "anonymous": false,
      "inputs": [
        {
          "indexed": true,
          "internalType": "uint256",
          "name": "productId",
          "type": "uint256"
        },
        {
          "indexed": false,
          "internalType": "address",
          "name": "disputedBy",
          "type": "address"
        },
        {
          "indexed": false,
          "internalType": "string",
          "name": "reason",
          "type": "string"
        }
      ],
      "name": "ProductDisputed",
      "type": "event"
    },
    {
      "anonymous": false,
      "inputs": [
        {
          "indexed": true,
          "internalType": "uint256",
          "name": "productId",
          "type": "uint256"
        },
        {
          "indexed": false,
          "internalType": "address",
          "name": "from",
          "type": "address"
        },
        {
          "indexed": false,
          "internalType": "address",
          "name": "to",
          "type": "address"
        }
      ],
      "name": "ProductTransferred",
      "type": "event"
    },
    {
      "anonymous": false,
      "inputs": [
        {
          "indexed": true,
          "internalType": "uint256",
          "name": "productId",
          "type": "uint256"
        },
        {
          "indexed": false,
          "internalType": "address",
          "name": "verifier",
          "type": "address"
        }
      ],
      "name": "ProductVerified",
      "type": "event"
    },
    {
      "anonymous": false,
      "inputs": [
        {
          "indexed": true,
          "internalType": "uint256",
          "name": "shipmentId",
          "type": "uint256"
        },
        {
          "indexed": false,
          "internalType": "uint256",
          "name": "productId",
          "type": "uint256"
        },
        {
          "indexed": false,
          "internalType": "address",
          "name": "from",
          "type": "address"
        },
        {
          "indexed": false,
          "internalType": "address",
          "name": "to",
          "type": "address"
        }
      ],
      "name": "ShipmentCreated",
      "type": "event"
    },
    {
      "anonymous": false,
      "inputs": [
        {
          "indexed": true,
          "internalType": "uint256",
          "name": "shipmentId",
          "type": "uint256"
        },
        {
          "indexed": false,
          "internalType": "enum SupplyChain.ShipmentStatus",
          "name": "status",
          "type": "uint8"
        }
      ],
      "name": "ShipmentStatusUpdated",
      "type": "event"
    },
    {
      "anonymous": false,
      "inputs": [
        {
          "indexed": true,
          "internalType": "address",
          "name": "userAddress",
          "type": "address"
        },
        {
          "indexed": false,
          "internalType": "string",
          "name": "name",
          "type": "string"
        },
        {
          "indexed": false,
          "internalType": "enum SupplyChain.Role",
          "name": "role",
          "type": "uint8"
        }
      ],
      "name": "UserRegistered",
      "type": "event"
    },
    {
      "inputs": [
        {
          "internalType": "uint256",
          "name": "_shipmentId",
          "type": "uint256"
        },
        {
          "internalType": "string",
          "name": "_location",
          "type": "string"
        },
        {
          "internalType": "string",
          "name": "_remarks",
          "type": "string"
        },
        {
          "internalType": "int256",
          "name": "_latitude",
          "type": "int256"
        },
        {
          "internalType": "int256",
          "name": "_longitude",
          "type": "int256"
        },
        {
          "internalType": "uint256",
          "name": "_temperature",
          "type": "uint256"
        },
        {
          "internalType": "uint256",
          "name": "_humidity",
          "type": "uint256"
        }
      ],
      "name": "addCheckpoint",
      "outputs": [],
      "stateMutability": "nonpayable",
      "type": "function"
    },
    {
      "inputs": [
        {
          "internalType": "uint256",
          "name": "_shipmentId",
          "type": "uint256"
        }
      ],
      "name": "completeShipment",
      "outputs": [],
      "stateMutability": "nonpayable",
      "type": "function"
    },
    {
      "inputs": [
        {
          "internalType": "string",
          "name": "_productName",
          "type": "string"
        },
        {
          "internalType": "string",
          "name": "_description",
          "type": "string"
        },
        {
          "internalType": "string",
          "name": "_category",
          "type": "string"
        },
        {
          "internalType": "string",
          "name": "_batchNumber",
          "type": "string"
        },
        {
          "internalType": "uint256",
          "name": "_quantity",
          "type": "uint256"
        },
        {
          "internalType": "string",
          "name": "_qrCodeHash",
          "type": "string"
        },
        {
          "internalType": "string[]",
          "name": "_imageHashes",
          "type": "string[]"
        }
      ],
      "name": "createProduct",
      "outputs": [
        {
          "internalType": "uint256",
          "name": "",
          "type": "uint256"
        }
      ],
      "stateMutability": "nonpayable",
      "type": "function"
    },
    {
      "inputs": [
        {
          "internalType": "uint256",
          "name": "_productId",
          "type": "uint256"
        },
        {
          "internalType": "address",
          "name": "_to",
          "type": "address"
        },
        {
          "internalType": "uint256",
          "name": "_expectedArrival",
          "type": "uint256"
        },
        {
          "internalType": "string",
          "name": "_trackingNumber",
          "type": "string"
        },
        {
          "internalType": "string",
          "name": "_vehicleInfo",
          "type": "string"
        }
      ],
      "name": "createShipment",
      "outputs": [
        {
          "internalType": "uint256",
          "name": "",
          "type": "uint256"
        }
      ],
      "stateMutability": "nonpayable",
      "type": "function"
    },
    {
      "inputs": [
        {
          "internalType": "uint256",
          "name": "_productId",
          "type": "uint256"
        }
      ],
      "name": "getProduct",
      "outputs": [
        {
          "components": [
            {
              "internalType": "uint256",
              "name": "productId",
              "type": "uint256"
            },
            {
              "internalType": "string",
              "name": "productName",
              "type": "string"
            },
            {
              "internalType": "string",
              "name": "description",
              "type": "string"
            },
            {
              "internalType": "string",
              "name": "category",
              "type": "string"
            },
            {
              "internalType": "uint256",
              "name": "manufacturingDate",
              "type": "uint256"
            },
            {
              "internalType": "address",
              "name": "manufacturer",
              "type": "address"
            },
            {
              "internalType": "string",
              "name": "batchNumber",
              "type": "string"
            },
            {
              "internalType": "uint256",
              "name": "quantity",
              "type": "uint256"
            },
            {
              "internalType": "enum SupplyChain.ProductStatus",
              "name": "status",
              "type": "uint8"
            },
            {
              "internalType": "bool",
              "name": "isAuthentic",
              "type": "bool"
            },
            {
              "internalType": "uint256",
              "name": "createdAt",
              "type": "uint256"
            },
            {
              "internalType": "string",
              "name": "qrCodeHash",
              "type": "string"
            },
            {
              "internalType": "string[]",
              "name": "imageHashes",
              "type": "string[]"
            }
          ],
          "internalType": "struct SupplyChain.Product",
          "name": "",
          "type": "tuple"
        }
      ],
      "stateMutability": "view",
      "type": "function"
    },
    {
      "inputs": [
        {
          "internalType": "uint256",
          "name": "_productId",
          "type": "uint256"
        }
      ],
      "name": "getProductOwnershipHistory",
      "outputs": [
        {
          "internalType": "address[]",
          "name": "",
          "type": "address[]"
        }
      ],
      "stateMutability": "view",
      "type": "function"
    },
    {
      "inputs": [
        {
          "internalType": "uint256",
          "name": "_productId",
          "type": "uint256"
        }
      ],
      "name": "getProductShipments",
      "outputs": [
        {
          "internalType": "uint256[]",
          "name": "",
          "type": "uint256[]"
        }
      ],
      "stateMutability": "view",
      "type": "function"
    },
    {
      "inputs": [
        {
          "internalType": "enum SupplyChain.ProductStatus",
          "name": "_status",
          "type": "uint8"
        }
      ],
      "name": "getProductsByStatus",
      "outputs": [
        {
          "internalType": "uint256[]",
          "name": "",
          "type": "uint256[]"
        }
      ],
      "stateMutability": "view",
      "type": "function"
    },
    {
      "inputs": [
        {
          "internalType": "uint256",
          "name": "_shipmentId",
          "type": "uint256"
        }
      ],
      "name": "getShipment",
      "outputs": [
        {
          "internalType": "uint256",
          "name": "shipmentId",
          "type": "uint256"
        },
        {
          "internalType": "uint256",
          "name": "productId",
          "type": "uint256"
        },
        {
          "internalType": "address",
          "name": "from",
          "type": "address"
        },
        {
          "internalType": "address",
          "name": "to",
          "type": "address"
        },
        {
          "internalType": "uint256",
          "name": "departureTime",
          "type": "uint256"
        },
        {
          "internalType": "uint256",
          "name": "expectedArrival",
          "type": "uint256"
        },
        {
          "internalType": "uint256",
          "name": "actualArrival",
          "type": "uint256"
        },
        {
          "internalType": "enum SupplyChain.ShipmentStatus",
          "name": "status",
          "type": "uint8"
        },
        {
          "internalType": "string",
          "name": "trackingNumber",
          "type": "string"
        },
        {
          "internalType": "string",
          "name": "vehicleInfo",
          "type": "string"
        }
      ],
      "stateMutability": "view",
      "type": "function"
    },
    {
      "inputs": [
        {
          "internalType": "uint256",
          "name": "_shipmentId",
          "type": "uint256"
        }
      ],
      "name": "getShipmentCheckpoints",
      "outputs": [
        {
          "components": [
            {
              "internalType": "address",
              "name": "handler",
              "type": "address"
            },
            {
              "internalType": "string",
              "name": "location",
              "type": "string"
            },
            {
              "internalType": "uint256",
              "name": "timestamp",
              "type": "uint256"
            },
            {
              "internalType": "string",
              "name": "remarks",
              "type": "string"
            },
            {
              "internalType": "enum SupplyChain.ProductStatus",
              "name": "status",
              "type": "uint8"
            },
            {
              "internalType": "int256",
              "name": "latitude",
              "type": "int256"
            },
            {
              "internalType": "int256",
              "name": "longitude",
              "type": "int256"
            },
            {
              "internalType": "uint256",
              "name": "temperature",
              "type": "uint256"
            },
            {
              "internalType": "uint256",
              "name": "humidity",
              "type": "uint256"
            }
          ],
          "internalType": "struct SupplyChain.Checkpoint[]",
          "name": "",
          "type": "tuple[]"
        }
      ],
      "stateMutability": "view",
      "type": "function"
    },
    {
      "inputs": [],
      "name": "getTotalProducts",
      "outputs": [
        {
          "internalType": "uint256",
          "name": "",
          "type": "uint256"
        }
      ],
      "stateMutability": "view",
      "type": "function"
    },
    {
      "inputs": [],
      "name": "getTotalShipments",
      "outputs": [
        {
          "internalType": "uint256",
          "name": "",
          "type": "uint256"
        }
      ],
      "stateMutability": "view",
      "type": "function"
    },
    {
      "inputs": [
        {
          "internalType": "address",
          "name": "_userAddress",
          "type": "address"
        }
      ],
      "name": "getUserInfo",
      "outputs": [
        {
          "components": [
            {
              "internalType": "address",
              "name": "userAddress",
              "type": "address"
            },
            {
              "internalType": "string",
              "name": "name",
              "type": "string"
            },
            {
              "internalType": "string",
              "name": "email",
              "type": "string"
            },
            {
              "internalType": "enum SupplyChain.Role",
              "name": "role",
              "type": "uint8"
            },
            {
              "internalType": "bool",
              "name": "isActive",
              "type": "bool"
            },
            {
              "internalType": "uint256",
              "name": "registeredAt",
              "type": "uint256"
            }
          ],
          "internalType": "struct SupplyChain.User",
          "name": "",
          "type": "tuple"
        }
      ],
      "stateMutability": "view",
      "type": "function"
    },
    {
      "inputs": [
        {
          "internalType": "address",
          "name": "_userAddress",
          "type": "address"
        }
      ],
      "name": "getUserProducts",
      "outputs": [
        {
          "internalType": "uint256[]",
          "name": "",
          "type": "uint256[]"
        }
      ],
      "stateMutability": "view",
      "type": "function"
    },
    {
      "inputs": [
        {
          "internalType": "uint256",
          "name": "_productId",
          "type": "uint256"
        },
        {
          "internalType": "string",
          "name": "_reason",
          "type": "string"
        }
      ],
      "name": "markProductAsDisputed",
      "outputs": [],
      "stateMutability": "nonpayable",
      "type": "function"
    },
    {
      "inputs": [],
      "name": "owner",
      "outputs": [
        {
          "internalType": "address",
          "name": "",
          "type": "address"
        }
      ],
      "stateMutability": "view",
      "type": "function"
    },
    {
      "inputs": [],
      "name": "productCounter",
      "outputs": [
        {
          "internalType": "uint256",
          "name": "",
          "type": "uint256"
        }
      ],
      "stateMutability": "view",
      "type": "function"
    },
    {
      "inputs": [
        {
          "internalType": "uint256",
          "name": "",
          "type": "uint256"
        },
        {
          "internalType": "uint256",
          "name": "",
          "type": "uint256"
        }
      ],
      "name": "productOwnershipHistory",
      "outputs": [
        {
          "internalType": "address",
          "name": "",
          "type": "address"
        }
      ],
      "stateMutability": "view",
      "type": "function"
    },
    {
      "inputs": [
        {
          "internalType": "uint256",
          "name": "",
          "type": "uint256"
        },
        {
          "internalType": "uint256",
          "name": "",
          "type": "uint256"
        }
      ],
      "name": "productShipments",
      "outputs": [
        {
          "internalType": "uint256",
          "name": "",
          "type": "uint256"
        }
      ],
      "stateMutability": "view",
      "type": "function"
    },
    {
      "inputs": [
        {
          "internalType": "uint256",
          "name": "",
          "type": "uint256"
        }
      ],
      "name": "products",
      "outputs": [
        {
          "internalType": "uint256",
          "name": "productId",
          "type": "uint256"
        },
        {
          "internalType": "string",
          "name": "productName",
          "type": "string"
        },
        {
          "internalType": "string",
          "name": "description",
          "type": "string"
        },
        {
          "internalType": "string",
          "name": "category",
          "type": "string"
        },
        {
          "internalType": "uint256",
          "name": "manufacturingDate",
          "type": "uint256"
        },
        {
          "internalType": "address",
          "name": "manufacturer",
          "type": "address"
        },
        {
          "internalType": "string",
          "name": "batchNumber",
          "type": "string"
        },
        {
          "internalType": "uint256",
          "name": "quantity",
          "type": "uint256"
        },
        {
          "internalType": "enum SupplyChain.ProductStatus",
          "name": "status",
          "type": "uint8"
        },
        {
          "internalType": "bool",
          "name": "isAuthentic",
          "type": "bool"
        },
        {
          "internalType": "uint256",
          "name": "createdAt",
          "type": "uint256"
        },
        {
          "internalType": "string",
          "name": "qrCodeHash",
          "type": "string"
        }
      ],
      "stateMutability": "view",
      "type": "function"
    },
    {
      "inputs": [
        {
          "internalType": "string",
          "name": "",
          "type": "string"
        }
      ],
      "name": "qrCodeToProduct",
      "outputs": [
        {
          "internalType": "uint256",
          "name": "",
          "type": "uint256"
        }
      ],
      "stateMutability": "view",
      "type": "function"
    },
    {
      "inputs": [
        {
          "internalType": "string",
          "name": "_name",
          "type": "string"
        },
        {
          "internalType": "string",
          "name": "_email",
          "type": "string"
        },
        {
          "internalType": "enum SupplyChain.Role",
          "name": "_role",
          "type": "uint8"
        }
      ],
      "name": "registerUser",
      "outputs": [],
      "stateMutability": "nonpayable",
      "type": "function"
    },
    {
      "inputs": [],
      "name": "shipmentCounter",
      "outputs": [
        {
          "internalType": "uint256",
          "name": "",
          "type": "uint256"
        }
      ],
      "stateMutability": "view",
      "type": "function"
    },
    {
      "inputs": [
        {
          "internalType": "uint256",
          "name": "",
          "type": "uint256"
        }
      ],
      "name": "shipments",
      "outputs": [
        {
          "internalType": "uint256",
          "name": "shipmentId",
          "type": "uint256"
        },
        {
          "internalType": "uint256",
          "name": "productId",
          "type": "uint256"
        },
        {
          "internalType": "address",
          "name": "from",
          "type": "address"
        },
        {
          "internalType": "address",
          "name": "to",
          "type": "address"
        },
        {
          "internalType": "uint256",
          "name": "departureTime",
          "type": "uint256"
        },
        {
          "internalType": "uint256",
          "name": "expectedArrival",
          "type": "uint256"
        },
        {
          "internalType": "uint256",
          "name": "actualArrival",
          "type": "uint256"
        },
        {
          "internalType": "enum SupplyChain.ShipmentStatus",
          "name": "status",
          "type": "uint8"
        },
        {
          "internalType": "string",
          "name": "trackingNumber",
          "type": "string"
        },
        {
          "internalType": "string",
          "name": "vehicleInfo",
          "type": "string"
        }
      ],
      "stateMutability": "view",
      "type": "function"
    },
    {
      "inputs": [
        {
          "internalType": "address",
          "name": "_userAddress",
          "type": "address"
        },
        {
          "internalType": "bool",
          "name": "_isActive",
          "type": "bool"
        }
      ],
      "name": "updateUserStatus",
      "outputs": [],
      "stateMutability": "nonpayable",
      "type": "function"
    },
    {
      "inputs": [
        {
          "internalType": "address",
          "name": "",
          "type": "address"
        },
        {
          "internalType": "uint256",
          "name": "",
          "type": "uint256"
        }
      ],
      "name": "userProducts",
      "outputs": [
        {
          "internalType": "uint256",
          "name": "",
          "type": "uint256"
        }
      ],
      "stateMutability": "view",
      "type": "function"
    },
    {
      "inputs": [
        {
          "internalType": "address",
          "name": "",
          "type": "address"
        }
      ],
      "name": "users",
      "outputs": [
        {
          "internalType": "address",
          "name": "userAddress",
          "type": "address"
        },
        {
          "internalType": "string",
          "name": "name",
          "type": "string"
        },
        {
          "internalType": "string",
          "name": "email",
          "type": "string"
        },
        {
          "internalType": "enum SupplyChain.Role",
          "name": "role",
          "type": "uint8"
        },
        {
          "internalType": "bool",
          "name": "isActive",
          "type": "bool"
        },
        {
          "internalType": "uint256",
          "name": "registeredAt",
          "type": "uint256"
        }
      ],
      "stateMutability": "view",
      "type": "function"
    },
    {
      "inputs": [
        {
          "internalType": "uint256",
          "name": "_productId",
          "type": "uint256"
        }
      ],
      "name": "verifyProduct",
      "outputs": [],
      "stateMutability": "nonpayable",
      "type": "function"
    },
    {
      "inputs": [
        {
          "internalType": "string",
          "name": "_qrCodeHash",
          "type": "string"
        }
      ],
      "name": "verifyProductByQR",
      "outputs": [
        {
          "internalType": "bool",
          "name": "exists",
          "type": "bool"
        },
        {
          "internalType": "uint256",
          "name": "productId",
          "type": "uint256"
        },
        {
          "components": [
            {
              "internalType": "uint256",
              "name": "productId",
              "type": "uint256"
            },
            {
              "internalType": "string",
              "name": "productName",
              "type": "string"
            },
            {
              "internalType": "string",
              "name": "description",
              "type": "string"
            },
            {
              "internalType": "string",
              "name": "category",
              "type": "string"
            },
            {
              "internalType": "uint256",
              "name": "manufacturingDate",
              "type": "uint256"
            },
            {
              "internalType": "address",
              "name": "manufacturer",
              "type": "address"
            },
            {
              "internalType": "string",
              "name": "batchNumber",
              "type": "string"
            },
            {
              "internalType": "uint256",
              "name": "quantity",
              "type": "uint256"
            },
            {
              "internalType": "enum SupplyChain.ProductStatus",
              "name": "status",
              "type": "uint8"
            },
            {
              "internalType": "bool",
              "name": "isAuthentic",
              "type": "bool"
            },
            {
              "internalType": "uint256",
              "name": "createdAt",
              "type": "uint256"
            },
            {
              "internalType": "string",
              "name": "qrCodeHash",
              "type": "string"
            },
            {
              "internalType": "string[]",
              "name": "imageHashes",
              "type": "string[]"
            }
          ],
          "internalType": "struct SupplyChain.Product",
          "name": "product",
          "type": "tuple"
        }
      ],
      "stateMutability": "view",
      "type": "function"
    }
  ],
  "bytecode": "0x608060405234801561001057600080fd5b50600080546001600160a01b0319163317815560018190556002556142fe8061003a6000396000f3fe608060405234801561001057600080fd5b50600436106101cf5760003560e01c80636386c1c711610104578063a87430ba116100a2578063ced2dea411610071578063ced2dea41461045a578063f04926481461046d578063f15456b514610480578063fee7f53b1461049357600080fd5b8063a87430ba146103e2578063aedd037614610407578063b9db15b414610427578063c875ff791461044757600080fd5b80637acc0b20116100de5780637acc0b2014610362578063885301b21461038d5780638da5cb5b1461039557806391acfa6e146103c057600080fd5b80636386c1c71461030f5780636983d3951461032f578063737978631461034f57600080fd5b80632fe9f95811610171578063524e84621161014b578063524e8462146102c1578063570aea8a146102d457806357146a02146102dc5780635f19f4f5146102ef57600080fd5b80632fe9f958146102925780633d527883146102a55780634647f9da146102b857600080fd5b80630b4144b9116101ad5780630b4144b91461024e5780631f16653b146102635780632ac08a931461026c5780632e17a9311461027f57600080fd5b8063031c3154146101d4578063047b7f2614610212578063092b374014610225575b600080fd5b6101ff6101e236600461359d565b805160208183018101805160078252928201919093012091525481565b6040519081526020015b60405180910390f35b6101ff610220366004613679565b6104a6565b610238610233366004613779565b6108d7565b6040516102099a9998979695949392919061380c565b61026161025c3660046138a9565b610aac565b005b6101ff60015481565b61023861027a366004613779565b610b9e565b61026161028d3660046138f2565b610d13565b6101ff6102a036600461396a565b610efa565b6101ff6102b336600461398c565b610f2b565b6101ff60025481565b6102616102cf366004613779565b610f47565b6001546101ff565b6102616102ea3660046139b6565b6110bf565b6103026102fd366004613779565b6113c8565b6040516102099190613a61565b61032261031d366004613b42565b611604565b6040516102099190613b64565b61034261033d366004613779565b6117ba565b6040516102099190613be7565b61026161035d366004613c34565b611856565b610375610370366004613779565b611910565b6040516102099c9b9a99989796959493929190613c7b565b6002546101ff565b6000546103a8906001600160a01b031681565b6040516001600160a01b039091168152602001610209565b6103d36103ce36600461359d565b611c2b565b60405161020993929190613e93565b6103f56103f0366004613b42565b612570565b60405161020996959493929190613ebd565b61041a610415366004613f1c565b6126c6565b6040516102099190613f39565b61043a610435366004613779565b612841565b6040516102099190613f71565b6101ff610455366004613f84565b612cda565b61041a610468366004613779565b612f8d565b6103a861047b36600461396a565b61301e565b61026161048e366004613779565b613056565b61041a6104a1366004613b42565b6132e1565b6000600180336000908152600360208190526040909120015460ff1660048111156104d3576104d3613792565b146105195760405162461bcd60e51b8152602060048201526011602482015270556e617574686f72697a656420726f6c6560781b60448201526064015b60405180910390fd5b3360009081526003602081905260409091200154610100900460ff166105515760405162461bcd60e51b81526004016105109061400c565b600089511161059a5760405162461bcd60e51b8152602060048201526015602482015274141c9bd91d58dd081b985b59481c995c5d5a5c9959605a1b6044820152606401610510565b600085116105ea5760405162461bcd60e51b815260206004820152601f60248201527f5175616e74697479206d7573742062652067726561746572207468616e2030006044820152606401610510565b6007846040516105fa9190614038565b9081526020016040518091039020546000146106515760405162461bcd60e51b8152602060048201526016602482015275515220636f646520616c72656164792065786973747360501b6044820152606401610510565b6001805490600061066183614054565b9190505550604051806101a0016040528060015481526020018a8152602001898152602001888152602001428152602001336001600160a01b03168152602001878152602001868152602001600060048111156106c0576106c0613792565b81526020016001151581526020014281526020018581526020018481525060046000600154815260200190815260200160002060008201518160000155602082015181600101908161071291906140fe565b506040820151600282019061072790826140fe565b506060820151600382019061073c90826140fe565b506080820151600482015560a08201516005820180546001600160a01b0319166001600160a01b0390921691909117905560c0820151600682019061078190826140fe565b5060e0820151600782015561010082015160088201805460ff191660018360048111156107b0576107b0613792565b02179055506101208201516008820180549115156101000261ff00199092169190911790556101408201516009820155610160820151600a8201906107f590826140fe565b50610180820151805161081291600b84019160209091019061334d565b509050506001546007856040516108299190614038565b9081526040805191829003602090810183209390935560018054600090815260088552828120805480840182559082528582200180546001600160a01b03191633908117909155808252600986529281208254815480850183559183529590912001939093559154917faf6ffb6277511513e7d579327cc1fc57f0266df2fb11a60b13487b8c9cd2c388916108bf918d916141be565b60405180910390a25050600154979650505050505050565b6000806000806000806000806060808a6000811180156108f957506002548111155b6109155760405162461bcd60e51b8152600401610510906141e8565b60008c81526005602081905260409091208054600182015460028301546003840154600485015495850154600686015460078701546008880180549899979896976001600160a01b0396871697969095169560ff9092169160098b0190829061097d9061407b565b80601f01602080910402602001604051908101604052809291908181526020018280546109a99061407b565b80156109f65780601f106109cb576101008083540402835291602001916109f6565b820191906000526020600020905b8154815290600101906020018083116109d957829003601f168201915b50505050509150808054610a099061407b565b80601f0160208091040260200160405190810160405280929190818152602001828054610a359061407b565b8015610a825780601f10610a5757610100808354040283529160200191610a82565b820191906000526020600020905b815481529060010190602001808311610a6557829003601f168201915b505050505090509b509b509b509b509b509b509b509b509b509b5050509193959799509193959799565b6000546001600160a01b03163314610b115760405162461bcd60e51b815260206004820152602260248201527f4f6e6c79206f776e65722063616e20706572666f726d2074686973206163746960448201526137b760f11b6064820152608401610510565b6001600160a01b0382811660009081526003602052604090205416610b695760405162461bcd60e51b815260206004820152600e60248201526d155cd95c881b9bdd08199bdd5b9960921b6044820152606401610510565b6001600160a01b0390911660009081526003602081905260409091200180549115156101000261ff0019909216919091179055565b6005602081905260009182526040909120805460018201546002830154600384015460048501549585015460068601546007870154600888018054979996986001600160a01b03968716989590961696959394929360ff90921692610c029061407b565b80601f0160208091040260200160405190810160405280929190818152602001828054610c2e9061407b565b8015610c7b5780601f10610c5057610100808354040283529160200191610c7b565b820191906000526020600020905b815481529060010190602001808311610c5e57829003601f168201915b505050505090806009018054610c909061407b565b80601f0160208091040260200160405190810160405280929190818152602001828054610cbc9061407b565b8015610d095780601f10610cde57610100808354040283529160200191610d09565b820191906000526020600020905b815481529060010190602001808311610cec57829003601f168201915b505050505090508a565b6000816004811115610d2757610d27613792565b03610d635760405162461bcd60e51b815260206004820152600c60248201526b496e76616c696420726f6c6560a01b6044820152606401610510565b336000908152600360205260409020546001600160a01b031615610dc95760405162461bcd60e51b815260206004820152601760248201527f5573657220616c726561647920726567697374657265640000000000000000006044820152606401610510565b6040518060c00160405280336001600160a01b03168152602001848152602001838152602001826004811115610e0157610e01613792565b815260016020808301829052426040938401523360009081526003825292909220835181546001600160a01b0319166001600160a01b039091161781559183015190820190610e5090826140fe565b5060408201516002820190610e6590826140fe565b50606082015160038201805460ff19166001836004811115610e8957610e89613792565b021790555060808201516003820180549115156101000261ff001990921691909117905560a09091015160049091015560405133907fc2e5d5da58bd71d1a2d14cdef02a4256d971b728088f8190d067ccfbae3bd73e90610eed908690859061421f565b60405180910390a2505050565b60066020528160005260406000208181548110610f1657600080fd5b90600052602060002001600091509150505481565b60096020528160005260406000208181548110610f1657600080fd5b80600081118015610f5a57506001548111155b610f765760405162461bcd60e51b81526004016105109061424a565b3360009081526003602081905260409091200154610100900460ff16610fae5760405162461bcd60e51b81526004016105109061400c565b6002336000908152600360208190526040909120015460ff166004811115610fd857610fd8613792565b148061100b57506003336000908152600360208190526040909120015460ff16600481111561100957611009613792565b145b6110695760405162461bcd60e51b815260206004820152602960248201527f4f6e6c79206469737472696275746f7273206f722072657461696c6572732063604482015268616e2076657269667960b81b6064820152608401610510565b600082815260046020908152604091829020600801805460ff19166003179055905133815283917fab60911bebc6d3ab48620594e409545834da76f4995297ebc48ca5589f25437b910160405180910390a25050565b866000811180156110d257506002548111155b6110ee5760405162461bcd60e51b8152600401610510906141e8565b3360009081526003602081905260409091200154610100900460ff166111265760405162461bcd60e51b81526004016105109061400c565b600088815260056020526040902060028101546001600160a01b031633148061115b575060038101546001600160a01b031633145b8061118d57506002336000908152600360208190526040909120015460ff16600481111561118b5761118b613792565b145b6111d95760405162461bcd60e51b815260206004820152601e60248201527f556e617574686f72697a656420746f2061646420636865636b706f696e7400006044820152606401610510565b604080516101208101825233815260208082018b90524282840152606082018a9052600184015460009081526004918290529290922060080154600a840192608083019160ff169081111561123057611230613792565b815260208082018a905260408201899052606082018890526080909101869052825460018082018555600094855293829020835160099092020180546001600160a01b0319166001600160a01b0390921691909117815590820151919290919082019061129d90826140fe565b5060408201516002820155606082015160038201906112bc90826140fe565b5060808201518160040160006101000a81548160ff021916908360048111156112e7576112e7613792565b021790555060a0820151600582015560c0820151600682015560e08201516007820155610100909101516008909101556000600782015460ff16600381111561133257611332613792565b036113835760078101805460ff191660019081179091556040518a917f8e16b4336dc88d11f2b19383604580b7fc6349df052bc9232d52ce1a40df6c4d9161137a919061427a565b60405180910390a25b887f866265bddbf439813a934c7e4c8aa28227fcee7177726e80d4c4b669cd21b6c4338a6040516113b592919061428e565b60405180910390a2505050505050505050565b6060816000811180156113dd57506002548111155b6113f95760405162461bcd60e51b8152600401610510906141e8565b6000838152600560209081526040808320600a0180548251818502810185019093528083529193909284015b828210156115f75760008481526020908190206040805161012081019091526009850290910180546001600160a01b03168252600181018054929391929184019161146f9061407b565b80601f016020809104026020016040519081016040528092919081815260200182805461149b9061407b565b80156114e85780601f106114bd576101008083540402835291602001916114e8565b820191906000526020600020905b8154815290600101906020018083116114cb57829003601f168201915b505050505081526020016002820154815260200160038201805461150b9061407b565b80601f01602080910402602001604051908101604052809291908181526020018280546115379061407b565b80156115845780601f1061155957610100808354040283529160200191611584565b820191906000526020600020905b81548152906001019060200180831161156757829003601f168201915b505050918352505060048281015460209092019160ff16908111156115ab576115ab613792565b60048111156115bc576115bc613792565b815260200160058201548152602001600682015481526020016007820154815260200160088201548152505081526020019060010190611425565b5050505091505b50919050565b61160c6133a3565b6001600160a01b03808316600090815260036020908152604091829020825160c08101909352805490931682526001830180549293929184019161164f9061407b565b80601f016020809104026020016040519081016040528092919081815260200182805461167b9061407b565b80156116c85780601f1061169d576101008083540402835291602001916116c8565b820191906000526020600020905b8154815290600101906020018083116116ab57829003601f168201915b505050505081526020016002820180546116e19061407b565b80601f016020809104026020016040519081016040528092919081815260200182805461170d9061407b565b801561175a5780601f1061172f5761010080835404028352916020019161175a565b820191906000526020600020905b81548152906001019060200180831161173d57829003601f168201915b5050509183525050600382015460209091019060ff16600481111561178157611781613792565b600481111561179257611792613792565b81526003820154610100900460ff161515602082015260049091015460409091015292915050565b6060816000811180156117cf57506001548111155b6117eb5760405162461bcd60e51b81526004016105109061424a565b6000838152600860209081526040918290208054835181840281018401909452808452909183018282801561184957602002820191906000526020600020905b81546001600160a01b0316815260019091019060200180831161182b575b5050505050915050919050565b8160008111801561186957506001548111155b6118855760405162461bcd60e51b81526004016105109061424a565b3360009081526003602081905260409091200154610100900460ff166118bd5760405162461bcd60e51b81526004016105109061400c565b600083815260046020819052604091829020600801805461ffff191690911790555183907ff6e9fa1e39c430a0448e466c27d1af50c55ee0bef7ea8b618a30f426c793c30490610eed903390869061428e565b600460205260009081526040902080546001820180549192916119329061407b565b80601f016020809104026020016040519081016040528092919081815260200182805461195e9061407b565b80156119ab5780601f10611980576101008083540402835291602001916119ab565b820191906000526020600020905b81548152906001019060200180831161198e57829003601f168201915b5050505050908060020180546119c09061407b565b80601f01602080910402602001604051908101604052809291908181526020018280546119ec9061407b565b8015611a395780601f10611a0e57610100808354040283529160200191611a39565b820191906000526020600020905b815481529060010190602001808311611a1c57829003601f168201915b505050505090806003018054611a4e9061407b565b80601f0160208091040260200160405190810160405280929190818152602001828054611a7a9061407b565b8015611ac75780601f10611a9c57610100808354040283529160200191611ac7565b820191906000526020600020905b815481529060010190602001808311611aaa57829003601f168201915b5050505060048301546005840154600685018054949592946001600160a01b03909216935090611af69061407b565b80601f0160208091040260200160405190810160405280929190818152602001828054611b229061407b565b8015611b6f5780601f10611b4457610100808354040283529160200191611b6f565b820191906000526020600020905b815481529060010190602001808311611b5257829003601f168201915b50505050600783015460088401546009850154600a860180549596939560ff8085169650610100909404909316939192611ba89061407b565b80601f0160208091040260200160405190810160405280929190818152602001828054611bd49061407b565b8015611c215780601f10611bf657610100808354040283529160200191611c21565b820191906000526020600020905b815481529060010190602001808311611c0457829003601f168201915b505050505090508c565b600080611c366133f3565b600784604051611c469190614038565b90815260405190819003602001902054915081156120ca576001826004600085815260200190815260200160002080604051806101a001604052908160008201548152602001600182018054611c9b9061407b565b80601f0160208091040260200160405190810160405280929190818152602001828054611cc79061407b565b8015611d145780601f10611ce957610100808354040283529160200191611d14565b820191906000526020600020905b815481529060010190602001808311611cf757829003601f168201915b50505050508152602001600282018054611d2d9061407b565b80601f0160208091040260200160405190810160405280929190818152602001828054611d599061407b565b8015611da65780601f10611d7b57610100808354040283529160200191611da6565b820191906000526020600020905b815481529060010190602001808311611d8957829003601f168201915b50505050508152602001600382018054611dbf9061407b565b80601f0160208091040260200160405190810160405280929190818152602001828054611deb9061407b565b8015611e385780601f10611e0d57610100808354040283529160200191611e38565b820191906000526020600020905b815481529060010190602001808311611e1b57829003601f168201915b50505091835250506004820154602082015260058201546001600160a01b03166040820152600682018054606090920191611e729061407b565b80601f0160208091040260200160405190810160405280929190818152602001828054611e9e9061407b565b8015611eeb5780601f10611ec057610100808354040283529160200191611eeb565b820191906000526020600020905b815481529060010190602001808311611ece57829003601f168201915b505050918352505060078201546020820152600882015460409091019060ff166004811115611f1c57611f1c613792565b6004811115611f2d57611f2d613792565b81526008820154610100900460ff161515602082015260098201546040820152600a82018054606090920191611f629061407b565b80601f0160208091040260200160405190810160405280929190818152602001828054611f8e9061407b565b8015611fdb5780601f10611fb057610100808354040283529160200191611fdb565b820191906000526020600020905b815481529060010190602001808311611fbe57829003601f168201915b50505050508152602001600b8201805480602002602001604051908101604052809291908181526020016000905b828210156120b55783829060005260206000200180546120289061407b565b80601f01602080910402602001604051908101604052809291908181526020018280546120549061407b565b80156120a15780601f10612076576101008083540402835291602001916120a1565b820191906000526020600020905b81548152906001019060200180831161208457829003601f168201915b505050505081526020019060010190612009565b50505050815250509050925092509250612569565b600080805260046020908152604080516101a081019091527f17ef568e3e12ab5b9c7254a8d58478811de00f9e6eb34345acd53bf8fd09d3ec805482527f17ef568e3e12ab5b9c7254a8d58478811de00f9e6eb34345acd53bf8fd09d3ed8054859492939284929084019161213e9061407b565b80601f016020809104026020016040519081016040528092919081815260200182805461216a9061407b565b80156121b75780601f1061218c576101008083540402835291602001916121b7565b820191906000526020600020905b81548152906001019060200180831161219a57829003601f168201915b505050505081526020016002820180546121d09061407b565b80601f01602080910402602001604051908101604052809291908181526020018280546121fc9061407b565b80156122495780601f1061221e57610100808354040283529160200191612249565b820191906000526020600020905b81548152906001019060200180831161222c57829003601f168201915b505050505081526020016003820180546122629061407b565b80601f016020809104026020016040519081016040528092919081815260200182805461228e9061407b565b80156122db5780601f106122b0576101008083540402835291602001916122db565b820191906000526020600020905b8154815290600101906020018083116122be57829003601f168201915b50505091835250506004820154602082015260058201546001600160a01b031660408201526006820180546060909201916123159061407b565b80601f01602080910402602001604051908101604052809291908181526020018280546123419061407b565b801561238e5780601f106123635761010080835404028352916020019161238e565b820191906000526020600020905b81548152906001019060200180831161237157829003601f168201915b505050918352505060078201546020820152600882015460409091019060ff1660048111156123bf576123bf613792565b60048111156123d0576123d0613792565b81526008820154610100900460ff161515602082015260098201546040820152600a820180546060909201916124059061407b565b80601f01602080910402602001604051908101604052809291908181526020018280546124319061407b565b801561247e5780601f106124535761010080835404028352916020019161247e565b820191906000526020600020905b81548152906001019060200180831161246157829003601f168201915b50505050508152602001600b8201805480602002602001604051908101604052809291908181526020016000905b828210156125585783829060005260206000200180546124cb9061407b565b80601f01602080910402602001604051908101604052809291908181526020018280546124f79061407b565b80156125445780601f1061251957610100808354040283529160200191612544565b820191906000526020600020905b81548152906001019060200180831161252757829003601f168201915b5050505050815260200190600101906124ac565b505050508152505090509250925092505b9193909250565b600360205260009081526040902080546001820180546001600160a01b03909216929161259c9061407b565b80601f01602080910402602001604051908101604052809291908181526020018280546125c89061407b565b80156126155780601f106125ea57610100808354040283529160200191612615565b820191906000526020600020905b8154815290600101906020018083116125f857829003601f168201915b50505050509080600201805461262a9061407b565b80601f01602080910402602001604051908101604052809291908181526020018280546126569061407b565b80156126a35780601f10612678576101008083540402835291602001916126a3565b820191906000526020600020905b81548152906001019060200180831161268657829003601f168201915b505050506003830154600490930154919260ff8082169361010090920416915086565b6060600060015467ffffffffffffffff8111156126e5576126e56134e6565b60405190808252806020026020018201604052801561270e578160200160208202803683370190505b509050600060015b600154811161279c5784600481111561273157612731613792565b60008281526004602081905260409091206008015460ff169081111561275957612759613792565b0361278a5780838381518110612771576127716142b2565b60209081029190910101528161278681614054565b9250505b8061279481614054565b915050612716565b5060008167ffffffffffffffff8111156127b8576127b86134e6565b6040519080825280602002602001820160405280156127e1578160200160208202803683370190505b50905060005b8281101561283857838181518110612801576128016142b2565b602002602001015182828151811061281b5761281b6142b2565b60209081029190910101528061283081614054565b9150506127e7565b50949350505050565b6128496133f3565b8160008111801561285c57506001548111155b6128785760405162461bcd60e51b81526004016105109061424a565b60046000848152602001908152602001600020604051806101a0016040529081600082015481526020016001820180546128b19061407b565b80601f01602080910402602001604051908101604052809291908181526020018280546128dd9061407b565b801561292a5780601f106128ff5761010080835404028352916020019161292a565b820191906000526020600020905b81548152906001019060200180831161290d57829003601f168201915b505050505081526020016002820180546129439061407b565b80601f016020809104026020016040519081016040528092919081815260200182805461296f9061407b565b80156129bc5780601f10612991576101008083540402835291602001916129bc565b820191906000526020600020905b81548152906001019060200180831161299f57829003601f168201915b505050505081526020016003820180546129d59061407b565b80601f0160208091040260200160405190810160405280929190818152602001828054612a019061407b565b8015612a4e5780601f10612a2357610100808354040283529160200191612a4e565b820191906000526020600020905b815481529060010190602001808311612a3157829003601f168201915b50505091835250506004820154602082015260058201546001600160a01b03166040820152600682018054606090920191612a889061407b565b80601f0160208091040260200160405190810160405280929190818152602001828054612ab49061407b565b8015612b015780601f10612ad657610100808354040283529160200191612b01565b820191906000526020600020905b815481529060010190602001808311612ae457829003601f168201915b505050918352505060078201546020820152600882015460409091019060ff166004811115612b3257612b32613792565b6004811115612b4357612b43613792565b81526008820154610100900460ff161515602082015260098201546040820152600a82018054606090920191612b789061407b565b80601f0160208091040260200160405190810160405280929190818152602001828054612ba49061407b565b8015612bf15780601f10612bc657610100808354040283529160200191612bf1565b820191906000526020600020905b815481529060010190602001808311612bd457829003601f168201915b50505050508152602001600b8201805480602002602001604051908101604052809291908181526020016000905b82821015612ccb578382906000526020600020018054612c3e9061407b565b80601f0160208091040260200160405190810160405280929190818152602001828054612c6a9061407b565b8015612cb75780601f10612c8c57610100808354040283529160200191612cb7565b820191906000526020600020905b815481529060010190602001808311612c9a57829003601f168201915b505050505081526020019060010190612c1f565b50505091525090949350505050565b600085600081118015612cef57506001548111155b612d0b5760405162461bcd60e51b81526004016105109061424a565b3360009081526003602081905260409091200154610100900460ff16612d435760405162461bcd60e51b81526004016105109061400c565b6001600160a01b038616612d995760405162461bcd60e51b815260206004820152601960248201527f496e76616c696420726563697069656e742061646472657373000000000000006044820152606401610510565b6001600160a01b03861660009081526003602081905260409091200154610100900460ff16612e0a5760405162461bcd60e51b815260206004820152601760248201527f526563697069656e74206973206e6f74206163746976650000000000000000006044820152606401610510565b428511612e595760405162461bcd60e51b815260206004820152601d60248201527f496e76616c6964206578706563746564206172726976616c2074696d650000006044820152606401610510565b60028054906000612e6983614054565b90915550506002805460008181526005602081905260408220928355600183018b90559282018054336001600160a01b0319918216179091556003830180549091166001600160a01b038b16179055426004830155918101879055600681019190915560078101805460ff1916905560088101612ee686826140fe565b5060098101612ef585826140fe565b5060008881526006602090815260408083206002805482546001808201855593875285872001558c85526004845293829020600801805460ff19169091179055915482518b815233928101929092526001600160a01b038a168284015291517f81762d029b328d1f7794d0194d95635a365c911d762127b9ce2fdaff05636b319181900360600190a250506002549695505050505050565b606081600081118015612fa257506001548111155b612fbe5760405162461bcd60e51b81526004016105109061424a565b6000838152600660209081526040918290208054835181840281018401909452808452909183018282801561184957602002820191906000526020600020905b815481526020019060010190808311612ffe575050505050915050919050565b6008602052816000526040600020818154811061303a57600080fd5b6000918252602090912001546001600160a01b03169150829050565b8060008111801561306957506002548111155b6130855760405162461bcd60e51b8152600401610510906141e8565b3360009081526003602081905260409091200154610100900460ff166130bd5760405162461bcd60e51b81526004016105109061400c565b600082815260056020526040902060038101546001600160a01b031633146131335760405162461bcd60e51b8152602060048201526024808201527f4f6e6c7920726563697069656e742063616e20636f6d706c65746520736869706044820152631b595b9d60e21b6064820152608401610510565b6002600782015460ff16600381111561314e5761314e613792565b0361319b5760405162461bcd60e51b815260206004820152601a60248201527f536869706d656e7420616c72656164792064656c6976657265640000000000006044820152606401610510565b6007810180546002919060ff191660018302179055504260068201556001808201546000908152600460205260409020600801805460029260ff1990911690830217905550600180820180546000908152600860209081526040808320805480870182559084528284200180546001600160a01b031916339081179091558352600982528220925483549485018455928252902090910155600581015442111561324f5760078101805460ff191660031790555b600781015460405184917f8e16b4336dc88d11f2b19383604580b7fc6349df052bc9232d52ce1a40df6c4d916132889160ff169061427a565b60405180910390a2600181015460028201546003830154604080516001600160a01b0393841681529290911660208301527fcef86d37ba3dc1d682967cde44d8050488734bf53166725b220b4d2e515e9e939101610eed565b6001600160a01b03811660009081526009602090815260409182902080548351818402810184019094528084526060939283018282801561334157602002820191906000526020600020905b81548152602001906001019080831161332d575b50505050509050919050565b828054828255906000526020600020908101928215613393579160200282015b82811115613393578251829061338390826140fe565b509160200191906001019061336d565b5061339f929150613477565b5090565b6040518060c0016040528060006001600160a01b031681526020016060815260200160608152602001600060048111156133df576133df613792565b815260006020820181905260409091015290565b604051806101a00160405280600081526020016060815260200160608152602001606081526020016000815260200160006001600160a01b0316815260200160608152602001600081526020016000600481111561345357613453613792565b81526020016000151581526020016000815260200160608152602001606081525090565b8082111561339f57600061348b8282613494565b50600101613477565b5080546134a09061407b565b6000825580601f106134b0575050565b601f0160209004906000526020600020908101906134ce91906134d1565b50565b5b8082111561339f57600081556001016134d2565b634e487b7160e01b600052604160045260246000fd5b604051601f8201601f1916810167ffffffffffffffff81118282101715613525576135256134e6565b604052919050565b600082601f83011261353e57600080fd5b813567ffffffffffffffff811115613558576135586134e6565b61356b601f8201601f19166020016134fc565b81815284602083860101111561358057600080fd5b816020850160208301376000918101602001919091529392505050565b6000602082840312156135af57600080fd5b813567ffffffffffffffff8111156135c657600080fd5b6135d28482850161352d565b949350505050565b600082601f8301126135eb57600080fd5b8135602067ffffffffffffffff80831115613608576136086134e6565b8260051b6136178382016134fc565b938452858101830193838101908886111561363157600080fd5b84880192505b8583101561366d5782358481111561364f5760008081fd5b61365d8a87838c010161352d565b8352509184019190840190613637565b98975050505050505050565b600080600080600080600060e0888a03121561369457600080fd5b873567ffffffffffffffff808211156136ac57600080fd5b6136b88b838c0161352d565b985060208a01359150808211156136ce57600080fd5b6136da8b838c0161352d565b975060408a01359150808211156136f057600080fd5b6136fc8b838c0161352d565b965060608a013591508082111561371257600080fd5b61371e8b838c0161352d565b955060808a0135945060a08a013591508082111561373b57600080fd5b6137478b838c0161352d565b935060c08a013591508082111561375d57600080fd5b5061376a8a828b016135da565b91505092959891949750929550565b60006020828403121561378b57600080fd5b5035919050565b634e487b7160e01b600052602160045260246000fd5b600481106137b8576137b8613792565b9052565b60005b838110156137d75781810151838201526020016137bf565b50506000910152565b600081518084526137f88160208601602086016137bc565b601f01601f19169290920160200192915050565b8a8152602081018a90526001600160a01b038981166040830152881660608201526080810187905260a0810186905260c08101859052600061014061385460e08401876137a8565b80610100840152613867818401866137e0565b905082810361012084015261387c81856137e0565b9d9c50505050505050505050505050565b80356001600160a01b03811681146138a457600080fd5b919050565b600080604083850312156138bc57600080fd5b6138c58361388d565b9150602083013580151581146138da57600080fd5b809150509250929050565b600581106134ce57600080fd5b60008060006060848603121561390757600080fd5b833567ffffffffffffffff8082111561391f57600080fd5b61392b8783880161352d565b9450602086013591508082111561394157600080fd5b5061394e8682870161352d565b925050604084013561395f816138e5565b809150509250925092565b6000806040838503121561397d57600080fd5b50508035926020909101359150565b6000806040838503121561399f57600080fd5b6139a88361388d565b946020939093013593505050565b600080600080600080600060e0888a0312156139d157600080fd5b87359650602088013567ffffffffffffffff808211156139f057600080fd5b6139fc8b838c0161352d565b975060408a0135915080821115613a1257600080fd5b50613a1f8a828b0161352d565b979a96995096976060810135975060808101359660a0820135965060c090910135945092505050565b600581106134ce576134ce613792565b6137b881613a48565b60006020808301818452808551808352604092508286019150828160051b87010184880160005b83811015613b3457888303603f19018552815180516001600160a01b0316845261012088820151818a870152613ac0828701826137e0565b915050878201518886015260608083015186830382880152613ae283826137e0565b92505050608080830151613af882880182613a58565b505060a0828101519086015260c0808301519086015260e080830151908601526101009182015191909401529386019390860190600101613a88565b509098975050505050505050565b600060208284031215613b5457600080fd5b613b5d8261388d565b9392505050565b602080825282516001600160a01b03168282015282015160c06040830152600090613b9260e08401826137e0565b90506040840151601f19848303016060850152613baf82826137e0565b9150506060840151613bc081613a48565b806080850152506080840151151560a084015260a084015160c08401528091505092915050565b6020808252825182820181905260009190848201906040850190845b81811015613c285783516001600160a01b031683529284019291840191600101613c03565b50909695505050505050565b60008060408385031215613c4757600080fd5b82359150602083013567ffffffffffffffff811115613c6557600080fd5b613c718582860161352d565b9150509250929050565b60006101808e8352806020840152613c958184018f6137e0565b90508281036040840152613ca9818e6137e0565b90508281036060840152613cbd818d6137e0565b608084018c90526001600160a01b038b1660a085015283810360c08501529050613ce7818a6137e0565b90508760e0840152613cfd610100840188613a58565b85151561012084015284610140840152828103610160840152613d2081856137e0565b9f9e505050505050505050505050505050565b600081518084526020808501808196508360051b8101915082860160005b85811015613d7b578284038952613d698483516137e0565b98850198935090840190600101613d51565b5091979650505050505050565b60006101a0825184526020830151816020860152613da8828601826137e0565b91505060408301518482036040860152613dc282826137e0565b91505060608301518482036060860152613ddc82826137e0565b9150506080830151608085015260a0830151613e0360a08601826001600160a01b03169052565b5060c083015184820360c0860152613e1b82826137e0565b91505060e083015160e085015261010080840151613e3b82870182613a58565b50506101208381015115159085015261014080840151908501526101608084015185830382870152613e6d83826137e0565b925050506101808084015185830382870152613e898382613d33565b9695505050505050565b8315158152826020820152606060408201526000613eb46060830184613d88565b95945050505050565b6001600160a01b038716815260c060208201819052600090613ee1908301886137e0565b8281036040840152613ef381886137e0565b915050613eff85613a48565b6060820194909452911515608083015260a0909101529392505050565b600060208284031215613f2e57600080fd5b8135613b5d816138e5565b6020808252825182820181905260009190848201906040850190845b81811015613c2857835183529284019291840191600101613f55565b602081526000613b5d6020830184613d88565b600080600080600060a08688031215613f9c57600080fd5b85359450613fac6020870161388d565b935060408601359250606086013567ffffffffffffffff80821115613fd057600080fd5b613fdc89838a0161352d565b93506080880135915080821115613ff257600080fd5b50613fff8882890161352d565b9150509295509295909350565b60208082526012908201527155736572206973206e6f742061637469766560701b604082015260600190565b6000825161404a8184602087016137bc565b9190910192915050565b60006001820161407457634e487b7160e01b600052601160045260246000fd5b5060010190565b600181811c9082168061408f57607f821691505b6020821081036115fe57634e487b7160e01b600052602260045260246000fd5b601f8211156140f957600081815260208120601f850160051c810160208610156140d65750805b601f850160051c820191505b818110156140f5578281556001016140e2565b5050505b505050565b815167ffffffffffffffff811115614118576141186134e6565b61412c81614126845461407b565b846140af565b602080601f83116001811461416157600084156141495750858301515b600019600386901b1c1916600185901b1785556140f5565b600085815260208120601f198616915b8281101561419057888601518255948401946001909101908401614171565b50858210156141ae5787850151600019600388901b60f8161c191681555b5050505050600190811b01905550565b6040815260006141d160408301856137e0565b905060018060a01b03831660208301529392505050565b60208082526017908201527f536869706d656e7420646f6573206e6f74206578697374000000000000000000604082015260600190565b60408152600061423260408301856137e0565b905061423d83613a48565b8260208301529392505050565b602080825260169082015275141c9bd91d58dd08191bd95cc81b9bdd08195e1a5cdd60521b604082015260600190565b6020810161428882846137a8565b92915050565b6001600160a01b03831681526040602082018190526000906135d2908301846137e0565b634e487b7160e01b600052603260045260246000fdfea2646970667358221220a353eb5e37c3b6c9fb0ff512fa5b3a4f6ffd2fb6bedce3c92cb5b544c22e211964736f6c63430008130033",
  "linkReferences": {},
  "deployedLinkReferences": {}
}